{
  "contractName": "Map",
  "abi": [
    {
      "anonymous": false,
      "inputs": [
        {
          "indexed": false,
          "name": "cid",
          "type": "string"
        },
        {
          "indexed": false,
          "name": "user",
          "type": "address"
        },
        {
          "indexed": false,
          "name": "fileType",
          "type": "string"
        },
        {
          "indexed": false,
          "name": "name",
          "type": "string"
        },
        {
          "indexed": false,
          "name": "createdAt",
          "type": "uint256"
        },
        {
          "indexed": false,
          "name": "updatedAt",
          "type": "uint256"
        }
      ],
      "name": "fileUploaded",
      "type": "event",
      "signature": "0x8df9420cffd6cb5150ba152fe465c4eed729479f0faa1d389fd181b74e6e73a6"
    },
    {
      "constant": false,
      "inputs": [
        {
          "name": "_fileType",
          "type": "string"
        },
        {
          "name": "_cid",
          "type": "string"
        },
        {
          "name": "name",
          "type": "string"
        }
      ],
      "name": "addFile",
      "outputs": [],
      "payable": false,
      "stateMutability": "nonpayable",
      "type": "function",
      "signature": "0xd45a5685"
    },
    {
      "constant": true,
      "inputs": [],
      "name": "getFiles",
      "outputs": [
        {
          "components": [
            {
              "name": "fileType",
              "type": "string"
            },
            {
              "name": "name",
              "type": "string"
            },
            {
              "name": "cid",
              "type": "string"
            },
            {
              "name": "isUploaded",
              "type": "bool"
            },
            {
              "name": "createdAt",
              "type": "uint256"
            },
            {
              "name": "updatedAt",
              "type": "uint256"
            }
          ],
          "name": "",
          "type": "tuple[]"
        }
      ],
      "payable": false,
      "stateMutability": "view",
      "type": "function",
      "signature": "0x2da96d73"
    },
    {
      "constant": false,
      "inputs": [
        {
          "name": "_cid",
          "type": "string"
        },
        {
          "name": "_success",
          "type": "bool"
        }
      ],
      "name": "updateIsUploaded",
      "outputs": [],
      "payable": false,
      "stateMutability": "nonpayable",
      "type": "function",
      "signature": "0x061a84d6"
    }
  ],
  "bytecode": "0x608060405234801561001057600080fd5b506110fb806100206000396000f3fe608060405260043610610057576000357c0100000000000000000000000000000000000000000000000000000000900463ffffffff168063061a84d61461005c5780632da96d7314610085578063d45a5685146100b0575b600080fd5b34801561006857600080fd5b50610083600480360361007e9190810190610afb565b6100d9565b005b34801561009157600080fd5b5061009a61036c565b6040516100a79190610e78565b60405180910390f35b3480156100bc57600080fd5b506100d760048036036100d29190810190610b4f565b610620565b005b6000803373ffffffffffffffffffffffffffffffffffffffff1673ffffffffffffffffffffffffffffffffffffffff1681526020019081526020016000206000018054905061012833846107e1565b10151561016a576040517f08c379a000000000000000000000000000000000000000000000000000000000815260040161016190610f10565b60405180910390fd5b806000803373ffffffffffffffffffffffffffffffffffffffff1673ffffffffffffffffffffffffffffffffffffffff1681526020019081526020016000206000016101b633856107e1565b8154811015156101c257fe5b906000526020600020906006020160030160006101000a81548160ff0219169083151502179055508015610368577f8df9420cffd6cb5150ba152fe465c4eed729479f0faa1d389fd181b74e6e73a682336000803373ffffffffffffffffffffffffffffffffffffffff1673ffffffffffffffffffffffffffffffffffffffff16815260200190815260200160002060000161025e33876107e1565b81548110151561026a57fe5b90600052602060002090600602016000016000803373ffffffffffffffffffffffffffffffffffffffff1673ffffffffffffffffffffffffffffffffffffffff1681526020019081526020016000206000016102c633886107e1565b8154811015156102d257fe5b90600052602060002090600602016001016000803373ffffffffffffffffffffffffffffffffffffffff1673ffffffffffffffffffffffffffffffffffffffff16815260200190815260200160002060000161032e33896107e1565b81548110151561033a57fe5b9060005260206000209060060201600401544260405161035f96959493929190610e9a565b60405180910390a15b5050565b60606000803373ffffffffffffffffffffffffffffffffffffffff1673ffffffffffffffffffffffffffffffffffffffff168152602001908152602001600020600001805480602002602001604051908101604052809291908181526020016000905b82821015610617578382906000526020600020906006020160c06040519081016040529081600082018054600181600116156101000203166002900480601f01602080910402602001604051908101604052809291908181526020018280546001816001161561010002031660029004801561048c5780601f106104615761010080835404028352916020019161048c565b820191906000526020600020905b81548152906001019060200180831161046f57829003601f168201915b50505050508152602001600182018054600181600116156101000203166002900480601f01602080910402602001604051908101604052809291908181526020018280546001816001161561010002031660029004801561052e5780601f106105035761010080835404028352916020019161052e565b820191906000526020600020905b81548152906001019060200180831161051157829003601f168201915b50505050508152602001600282018054600181600116156101000203166002900480601f0160208091040260200160405190810160405280929190818152602001828054600181600116156101000203166002900480156105d05780601f106105a5576101008083540402835291602001916105d0565b820191906000526020600020905b8154815290600101906020018083116105b357829003601f168201915b505050505081526020016003820160009054906101000a900460ff1615151515815260200160048201548152602001600582015481525050815260200190600101906103cf565b50505050905090565b6000803373ffffffffffffffffffffffffffffffffffffffff1673ffffffffffffffffffffffffffffffffffffffff1681526020019081526020016000206000018054905061066f33846107e1565b1415156106b1576040517f08c379a00000000000000000000000000000000000000000000000000000000081526004016106a890610f30565b60405180910390fd5b6000803373ffffffffffffffffffffffffffffffffffffffff1673ffffffffffffffffffffffffffffffffffffffff16815260200190815260200160002060000160c0604051908101604052808581526020018381526020018481526020016000151581526020014281526020014281525090806001815401808255809150509060018203906000526020600020906006020160009091929091909150600082015181600001908051906020019061076a9291906109ec565b5060208201518160010190805190602001906107879291906109ec565b5060408201518160020190805190602001906107a49291906109ec565b5060608201518160030160006101000a81548160ff0219169083151502179055506080820151816004015560a08201518160050155505050505050565b600080600090505b6000808573ffffffffffffffffffffffffffffffffffffffff1673ffffffffffffffffffffffffffffffffffffffff1681526020019081526020016000206000018054905081101561099d57826040516020018082805190602001908083835b60208310151561086e5780518252602082019150602081019050602083039250610849565b6001836020036101000a038019825116818451168082178552505050505050905001915050604051602081830303815290604052805190602001206000808673ffffffffffffffffffffffffffffffffffffffff1673ffffffffffffffffffffffffffffffffffffffff168152602001908152602001600020600001828154811015156108f757fe5b906000526020600020906006020160020160405160200180828054600181600116156101000203166002900480156109665780601f10610944576101008083540402835291820191610966565b820191906000526020600020905b815481529060010190602001808311610952575b505091505060405160208183030381529060405280519060200120141561099057809150506109e6565b80806001019150506107e9565b506000808473ffffffffffffffffffffffffffffffffffffffff1673ffffffffffffffffffffffffffffffffffffffff1681526020019081526020016000206000018054905090505b92915050565b828054600181600116156101000203166002900490600052602060002090601f016020900481019282601f10610a2d57805160ff1916838001178555610a5b565b82800160010185558215610a5b579182015b82811115610a5a578251825591602001919060010190610a3f565b5b509050610a689190610a6c565b5090565b610a8e91905b80821115610a8a576000816000905550600101610a72565b5090565b90565b6000610a9d823561102c565b905092915050565b600082601f8301121515610ab857600080fd5b8135610acb610ac682610f7d565b610f50565b91508082526020830160208301858383011115610ae757600080fd5b610af283828461106e565b50505092915050565b60008060408385031215610b0e57600080fd5b600083013567ffffffffffffffff811115610b2857600080fd5b610b3485828601610aa5565b9250506020610b4585828601610a91565b9150509250929050565b600080600060608486031215610b6457600080fd5b600084013567ffffffffffffffff811115610b7e57600080fd5b610b8a86828701610aa5565b935050602084013567ffffffffffffffff811115610ba757600080fd5b610bb386828701610aa5565b925050604084013567ffffffffffffffff811115610bd057600080fd5b610bdc86828701610aa5565b9150509250925092565b610bef81611038565b82525050565b6000610c0082610fc8565b80845260208401935083602082028501610c1985610fa9565b60005b84811015610c52578383038852610c34838351610dd2565b9250610c3f82610fe9565b9150602088019750600181019050610c1c565b508196508694505050505092915050565b610c6c81610ff6565b82525050565b6000610c7d82610fde565b808452610c9181602086016020860161107d565b610c9a816110b0565b602085010191505092915050565b6000610cb382610fd3565b808452610cc781602086016020860161107d565b610cd0816110b0565b602085010191505092915050565b600081546001811660008114610cfb5760018114610d1b57610d5c565b607f600283041680865260ff198316602087015260408601935050610d5c565b60028204808652602086019550610d3185610fb6565b60005b82811015610d5357815481890152600182019150602081019050610d34565b80880195505050505b505092915050565b6000601482527f66696c6520646f6573206e6f74206578697374730000000000000000000000006020830152604082019050919050565b6000601382527f46696c6520616c726561647920657869737473000000000000000000000000006020830152604082019050919050565b600060c0830160008301518482036000860152610def8282610ca8565b91505060208301518482036020860152610e098282610ca8565b91505060408301518482036040860152610e238282610ca8565b9150506060830151610e386060860182610c63565b506080830151610e4b6080860182610e69565b5060a0830151610e5e60a0860182610e69565b508091505092915050565b610e7281611022565b82525050565b60006020820190508181036000830152610e928184610bf5565b905092915050565b600060c0820190508181036000830152610eb48189610c72565b9050610ec36020830188610be6565b8181036040830152610ed58187610cde565b90508181036060830152610ee98186610cde565b9050610ef86080830185610e69565b610f0560a0830184610e69565b979650505050505050565b60006020820190508181036000830152610f2981610d64565b9050919050565b60006020820190508181036000830152610f4981610d9b565b9050919050565b6000604051905081810181811067ffffffffffffffff82111715610f7357600080fd5b8060405250919050565b600067ffffffffffffffff821115610f9457600080fd5b601f19601f8301169050602081019050919050565b6000602082019050919050565b60008160005260206000209050919050565b600081519050919050565b600081519050919050565b600081519050919050565b6000602082019050919050565b60008115159050919050565b600073ffffffffffffffffffffffffffffffffffffffff82169050919050565b6000819050919050565b60008115159050919050565b60006110438261104a565b9050919050565b60006110558261105c565b9050919050565b600061106782611002565b9050919050565b82818337600083830152505050565b60005b8381101561109b578082015181840152602081019050611080565b838111156110aa576000848401525b50505050565b6000601f19601f830116905091905056fea265627a7a72305820ad49b5d5bcca26c8c077d07a35531554fcd582693cadfa15162a5bc0faa46b606c6578706572696d656e74616cf50037",
  "source": "pragma solidity >=0.4.22 <0.9.0;\r\npragma experimental ABIEncoderV2;\r\nimport \"./User.sol\";\r\n\r\ncontract Map is User {\r\n    mapping(address => user) users;\r\n\r\n    function findFileIndex(address _user, string memory _cid)\r\n        internal\r\n        view\r\n        returns (uint256)\r\n    {\r\n        for (uint256 i = 0; i < users[_user].files.length; i++) {\r\n            if (\r\n                keccak256(abi.encodePacked(users[_user].files[i].cid)) ==\r\n                keccak256(abi.encodePacked(_cid))\r\n            ) {\r\n                return i;\r\n            }\r\n        }\r\n        return users[_user].files.length;\r\n    }\r\n\r\n    function addFile(\r\n        string memory _fileType,\r\n        string memory _cid,\r\n        string memory name\r\n    ) public {\r\n        require(\r\n            findFileIndex(msg.sender, _cid) == users[msg.sender].files.length,\r\n            \"File already exists\"\r\n        );\r\n        users[msg.sender].files.push(\r\n            File(_fileType, name, _cid, false, block.timestamp, block.timestamp)\r\n        );\r\n    }\r\n\r\n    function getFiles() public view returns (File[] memory) {\r\n        return users[msg.sender].files;\r\n    }\r\n\r\n    function updateIsUploaded(string memory _cid, bool _success) public {\r\n        require(\r\n            findFileIndex(msg.sender, _cid) < users[msg.sender].files.length,\r\n            \"file does not exists\"\r\n        );\r\n        users[msg.sender]\r\n            .files[findFileIndex(msg.sender, _cid)]\r\n            .isUploaded = _success;\r\n        if (_success) {\r\n            emit fileUploaded(\r\n                _cid,\r\n                msg.sender,\r\n                users[msg.sender]\r\n                    .files[findFileIndex(msg.sender, _cid)]\r\n                    .fileType,\r\n                users[msg.sender].files[findFileIndex(msg.sender, _cid)].name,\r\n                users[msg.sender]\r\n                    .files[findFileIndex(msg.sender, _cid)]\r\n                    .createdAt,\r\n                block.timestamp\r\n            );\r\n        }\r\n    }\r\n}\r\n",
  "sourcePath": "G:/ETHIndia22/smart-contract/contracts/Map.sol",
  "compiler": {
    "name": "solc",
    "version": "0.5.0+commit.1d4f565a.Emscripten.clang"
  },
  "schemaVersion": "3.0.2",
  "updatedAt": "2022-12-03T05:11:36.574Z",
  "devdoc": {
    "methods": {}
  },
  "userdoc": {
    "methods": {}
  }
}