{
  "contractName": "UserFunctions",
  "abi": [
    {
      "anonymous": false,
      "inputs": [
        {
          "indexed": false,
          "name": "cid",
          "type": "string"
        },
        {
          "indexed": false,
          "name": "user",
          "type": "address"
        },
        {
          "indexed": false,
          "name": "fileType",
          "type": "string"
        },
        {
          "indexed": false,
          "name": "name",
          "type": "string"
        },
        {
          "indexed": false,
          "name": "createdAt",
          "type": "uint256"
        },
        {
          "indexed": false,
          "name": "updatedAt",
          "type": "uint256"
        }
      ],
      "name": "fileUploaded",
      "type": "event",
      "signature": "0x8df9420cffd6cb5150ba152fe465c4eed729479f0faa1d389fd181b74e6e73a6"
    },
    {
      "constant": false,
      "inputs": [],
      "name": "AddUser",
      "outputs": [],
      "payable": false,
      "stateMutability": "nonpayable",
      "type": "function",
      "signature": "0xf7e691dd"
    }
  ],
  "bytecode": "0x6080604052348015600f57600080fd5b5060ec8061001e6000396000f3fe608060405260043610603f576000357c0100000000000000000000000000000000000000000000000000000000900463ffffffff168063f7e691dd146044575b600080fd5b348015604f57600080fd5b5060566058565b005b60003390806001815401808255809150509060018203906000526020600020016000909192909190916101000a81548173ffffffffffffffffffffffffffffffffffffffff021916908373ffffffffffffffffffffffffffffffffffffffff1602179055505056fea165627a7a72305820995e0434419a324972530476971e03314e3fe54f2fc382ae69a247dae67d76cf0029",
  "source": "pragma solidity >=0.4.22 <0.9.0;\r\nimport \"./User.sol\";\r\n\r\ncontract UserFunctions is User {\r\n    function AddUser() public {\r\n        userArr.push(msg.sender);\r\n    }\r\n}\r\n",
  "sourcePath": "G:/ETHIndia22/smart-contract/contracts/UserFunctions.sol",
  "compiler": {
    "name": "solc",
    "version": "0.5.0+commit.1d4f565a.Emscripten.clang"
  },
  "schemaVersion": "3.0.2",
  "updatedAt": "2022-12-03T05:54:49.651Z",
  "devdoc": {
    "methods": {}
  },
  "userdoc": {
    "methods": {}
  }
}